:020000040000FA
:100000000C945C000C946E000C946E000C946E00CA
:100010000C946E000C946E000C946E000C946E00A8
:100020000C946E000C946E000C946E000C946E0098
:100030000C946E000C946E000C946E000C946E0088
:100040000C9470000C946E000C946E000C946E0076
:100050000C946E000C946E000C946E000C946E0068
:100060000C946E000C946E00000000002400270029
:100070002A0000000000250028002B0004040404CE
:100080000404040402020202020203030303030342
:10009000010204081020408001020408102001021F
:1000A00004081020000000080002010000030407FB
:1000B000000000000000000011241FBECFEFD8E0B8
:1000C000DEBFCDBF21E0A0E0B1E001C01D92A930AC
:1000D000B207E1F70E94BA000C94D0020C94000021
:1000E0001F920F920FB60F9211242F933F938F936D
:1000F0009F93AF93BF938091050190910601A091CA
:100100000701B09108013091040123E0230F2D373E
:1001100058F50196A11DB11D20930401809305019E
:1001200090930601A0930701B0930801809100010C
:1001300090910101A0910201B09103010196A11DCE
:10014000B11D8093000190930101A0930201B0932F
:100150000301BF91AF919F918F913F912F910F908C
:100160000FBE0F901F90189526E8230F0296A11D31
:10017000B11DD2CF789484B5826084BD84B581608E
:1001800084BD85B5826085BD85B5816085BD809162
:100190006E00816080936E001092810080918100DA
:1001A00082608093810080918100816080938100D2
:1001B000809180008160809380008091B100846094
:1001C0008093B1008091B00081608093B0008091F5
:1001D0007A00846080937A0080917A0082608093B4
:1001E0007A0080917A00816080937A0080917A0011
:1001F000806880937A001092C100EEE9F0E02491CB
:10020000EAE8F0E084918823C1F090E0880F991F1C
:10021000FC01E859FF4FC591D491FC01EE58FF4F06
:10022000A591B4919FB7F8948881E22FE0958E2331
:1002300088838C91E823EC939FBFCDE9D0E0FE0149
:10024000249109E810E0F8018491882399F090E066
:10025000880F991FFC01E859FF4FA591B491FC014B
:10026000EE58FF4F859194918FB7F8949C91292B6C
:100270002C938FBF90E4B92E21EBC22E20E0D22E1A
:1002800030E0E32E30E0F32EB0927C0080917A00D3
:10029000806480937A0080917A0086FDFCCF609123
:1002A00078007091790090E080E00E94AC0120E03D
:1002B00030E040EA5BE30E94EE0120E030E040E401
:1002C00050E40E94E9011816FCF4F6018491FE0145
:1002D0009491F80124912223B9F0882339F08330D6
:1002E00021F1C8F4813039F1823049F1E22FF0E098
:1002F000EE0FFF1FEE58FF4FA591B4918FB7F89402
:100300002C91922B9C938FBFE114F10409F4BCCF84
:100310000E940000B9CF8730A9F08830C9F084303E
:1003200029F7809180008F7D03C0809180008F77B6
:1003300080938000DBCF84B58F7784BDD7CF84B521
:100340008F7DFBCF8091B0008F778093B000CECFB0
:100350008091B0008F7DF9CFE89409C097FB3EF4FF
:1003600090958095709561957F4F8F4F9F4F992302
:10037000A9F0F92F96E9BB279395F6958795779580
:100380006795B795F111F8CFFAF4BB0F11F460FF40
:100390001BC06F5F7F4F8F4F9F4F16C0882311F098
:1003A00096E911C0772321F09EE8872F762F05C0AC
:1003B000662371F096E8862F70E060E02AF09A9547
:1003C000660F771F881FDAF7880F9695879597F93C
:1003D00008950E945B0208F48FEF08950E940102C5
:1003E0000C9496020E94880238F00E948F0220F03E
:1003F000952311F00C947F020C94850211240C9427
:10040000CA020E94A70270F3959FC1F3950F50E0B6
:10041000551F629FF001729FBB27F00DB11D639FB6
:10042000AA27F00DB11DAA1F649F6627B00DA11D5C
:10043000661F829F2227B00DA11D621F739FB00D02
:10044000A11D621F839FA00D611D221F749F332772
:10045000A00D611D231F849F600D211D822F762F0B
:100460006A2F11249F5750409AF0F1F088234AF0E8
:10047000EE0FFF1FBB1F661F771F881F9150504054
:10048000A9F79E3F510580F00C947F020C94CA029C
:100490005F3FE4F3983ED4F3869577956795B795DB
:1004A000F795E7959F5FC1F7FE2B880F911D9695F5
:1004B000879597F90895990F0008550FAA0BE0E862
:1004C000FEEF16161706E807F907C0F01216130616
:1004D000E407F50798F0621B730B840B950B39F456
:1004E0000A2661F0232B242B252B21F408950A26BC
:1004F00009F4A140A6958FEF811D811D089597F9FC
:100500009F6780E870E060E008959FEF80EC0895B9
:1005100000240A94161617061806090608950024E2
:100520000A9412161306140605060895092E03945C
:10053000000C11F4882352F0BB0F40F4BF2B11F4D0
:1005400060FF04C06F5F7F4F8F4F9F4F089557FD2F
:100550009058440F551F59F05F3F71F04795880F31
:1005600097FB991F61F09F3F79F0879508951216C8
:1005700013061406551FF2CF4695F1DF08C0161674
:1005800017061806991FF1CF869571056105089425
:100590000895E894BB2766277727CB0197F908953C
:0405A000F894FFCFFD
:107E0000112484B714BE81FFF0D085E080938100F7
:107E100082E08093C00088E18093C10086E0809377
:107E2000C20080E18093C4008EE0C9D0259A86E02C
:107E300020E33CEF91E0309385002093840096BBD3
:107E4000B09BFECF1D9AA8958150A9F7CC24DD24C4
:107E500088248394B5E0AB2EA1E19A2EF3E0BF2EE7
:107E6000A2D0813461F49FD0082FAFD0023811F036
:107E7000013811F484E001C083E08DD089C08234E0
:107E800011F484E103C0853419F485E0A6D080C0E4
:107E9000853579F488D0E82EFF2485D0082F10E0AE
:107EA000102F00270E291F29000F111F8ED06801E7
:107EB0006FC0863521F484E090D080E0DECF843638
:107EC00009F040C070D06FD0082F6DD080E0C81688
:107ED00080E7D80618F4F601B7BEE895C0E0D1E017
:107EE00062D089930C17E1F7F0E0CF16F0E7DF06D8
:107EF00018F0F601B7BEE89568D007B600FCFDCFD4
:107F0000A601A0E0B1E02C9130E011968C91119780
:107F100090E0982F8827822B932B1296FA010C0160
:107F200087BEE89511244E5F5F4FF1E0A038BF0790
:107F300051F7F601A7BEE89507B600FCFDCF97BE46
:107F4000E89526C08437B1F42ED02DD0F82E2BD052
:107F50003CD0F601EF2C8F010F5F1F4F84911BD097
:107F6000EA94F801C1F70894C11CD11CFA94CF0C13
:107F7000D11C0EC0853739F428D08EE10CD085E9AC
:107F80000AD08FE07ACF813511F488E018D01DD067
:107F900080E101D065CF982F8091C00085FFFCCF94
:107FA0009093C60008958091C00087FFFCCF809118
:107FB000C00084FD01C0A8958091C6000895E0E648
:107FC000F0E098E1908380830895EDDF803219F02E
:107FD00088E0F5DFFFCF84E1DECF1F93182FE3DFCA
:107FE0001150E9F7F2DF1F91089580E0E8DFEE27F6
:047FF000FF270994CA
:027FFE00040479
:00000001FF
